:100000000C9489030C94A6030C94A6030C94D20FB1
:100010000C94911F0C94A6030C94A6030C94A603B5
:100020000C94A6030C94532A0C94A6030C94802BD6
:100030000C94A6030C94A6030C94A6030C94A6039C
:100040000C94DF2F0C94A6030C941D270C94D62639
:100050000C94A6030C94A6030C94A6030C94A6037C
:100060000C94A6030C94A603942794279427AB27FB
:10007000C027C927D227DB27E427FB27072810281A
:1000800019282228342848285A28702882288B28A2
:1000900094289D28A828084AD73B3BCE016E84BCF3
:1000A000BFFDC12F3D6C74319ABD56833DDA3D00D2
:1000B000C77F11BED9E4BB4C3E916BAAAABE00001B
:1000C00000803F05A84CCDB2D44EB93836A9020CF9
:1000D00050B9918688083CA6AAAA2ABE00000080D2
:1000E0003F3E0D0A002C0057506F733A002C002C35
:1000F0004D506F733A003C436865636B003C416C44
:1001000061726D003C486F6D65003C486F6C640027
:100110003C52756E003C5175657565003C49646CD8
:1001200065000D0A003D00244E005D0D0A002046CA
:1001300000205400204D3800204D3900204D35005E
:10014000204D3400204D3300204D3200204D310031
:10015000204D3000204739340020473933002047F4
:1001600039310020473930002047323100204732F2
:1001700030002047313900204731380020473137DF
:10018000002047005B473830005B4733005B473255
:10019000005B4731005B4730005D0D0A002C005BBF
:1001A0004739323A005D0D0A002C0033303A0032F4
:1001B000383A0035393A0035383A0035373A0035A3
:1001C000363A0035353A0035343A005B470020288E
:1001D000686F6D696E672070756C6C2D6F66662C2C
:1001E000206D6D290D0A002028686F6D696E6720EB
:1001F0006465626F756E63652C206D736563290D90
:100200000A2432323D002028686F6D696E672073C2
:1002100065656B2C206D6D2F6D696E290D0A24327A
:10022000313D002028686F6D696E672066656564E2
:100230002C206D6D2F6D696E290D0A2432303D0022
:10024000290D0A2431393D002028686F6D696E67D9
:100250002064697220696E76657274206D61736BBB
:100260002C20696E743A002028686F6D696E6720D3
:100270006379636C652C20626F6F6C290D0A2431E1
:10028000383D00202868617264206C696D69747360
:100290002C20626F6F6C290D0A2431373D00202815
:1002A000696E76657274207374657020656E616224
:1002B0006C652C20626F6F6C290D0A2431363D006D
:1002C00020286175746F2073746172742C20626FC2
:1002D0006F6C290D0A2431353D0020287265706F3E
:1002E000727420696E636865732C20626F6F6C296D
:1002F0000D0A2431343D0020286E2D646563696D3C
:10030000616C732C20696E74290D0A2431333D0011
:1003100020286E2D61726320636F72726563746949
:100320006F6E2C20696E74290D0A2431323D002035
:10033000286172632C206D6D2F7365676D656E7417
:10034000290D0A2431313D0020286A756E637469D5
:100350006F6E20646576696174696F6E2C206D6DB7
:10036000290D0A2431303D002028616363656C65E6
:10037000726174696F6E2C206D6D2F7365635E32D0
:10038000290D0A24393D00202873746570206964A2
:100390006C652064656C61792C206D736563290D33
:1003A0000A24383D00290D0A24373D0020287374A3
:1003B000657020706F727420696E76657274206D3E
:1003C00061736B2C20696E743A0020286465666145
:1003D000756C74207365656B2C206D6D2F6D696E67
:1003E000290D0A24363D00202864656661756C7409
:1003F00020666565642C206D6D2F6D696E290D0A70
:1004000024353D002028737465702070756C736509
:100410002C2075736563290D0A24343D0020287A49
:100420002C20737465702F6D6D290D0A24333D00E7
:100430002028792C20737465702F6D6D290D0A2486
:10044000323D002028782C20737465702F6D6D2943
:100450000D0A24313D0024303D00242420287669F3
:100460006577204772626C2073657474696E677378
:10047000290D0A24232028766965772023207061BE
:1004800072616D6574657273290D0A2447202876A0
:100490006965772070617273657220737461746529
:1004A000290D0A244E2028766965772073746172BD
:1004B00074757020626C6F636B73290D0A24783D2C
:1004C00076616C7565202873617665204772626C71
:1004D0002073657474696E67290D0A244E783D6C2B
:1004E000696E652028736176652073746172747516
:1004F0007020626C6F636B290D0A244320286368A7
:1005000065636B2067636F6465206D6F6465290D9B
:100510000A245820286B696C6C20616C61726D2014
:100520006C6F636B290D0A2448202872756E206851
:100530006F6D696E67206379636C65290D0A7E2093
:10054000286379636C65207374617274290D0A21C4
:1005500020286665656420686F6C64290D0A3F2059
:100560002863757272656E74207374617475732973
:100570000D0A6374726C2D7820287265736574207F
:100580004772626C290D0A000D0A4772626C2030B6
:100590002E3863205B27242720666F722068656CE5
:1005A000705D0D0A005D0D0A0044697361626C653F
:1005B0006400456E61626C65640043617574696FC7
:1005C0006E3A20556E6C6F636B6564002724482774
:1005D0007C2724582720746F20756E6C6F636B0026
:1005E000526573657420746F20636F6E74696E75E5
:1005F00065005B002E204D506F733F0D0A00416275
:100600006F727420647572696E67206379636C65BC
:100610000048617264206C696D697400414C4152FC
:100620004D3A20000D0A00416C61726D206C6F63C1
:100630006B0042757379206F722071756575656402
:1006400000454550524F4D207265616420666169D6
:100650006C2E205573696E672064656661756C74D5
:10066000730056616C7565203C203320757365639B
:100670000056616C7565203C20302E300053657447
:1006800074696E672064697361626C656400496EA9
:1006900076616C69642073746174656D656E740055
:1006A0004D6F64616C2067726F75702076696F6C36
:1006B0006174696F6E00496E76616C696420726165
:1006C0006469757300556E737570706F72746564CC
:1006D0002073746174656D656E7400457870656330
:1006E00074656420636F6D6D616E64206C657474F5
:1006F000657200426164206E756D62657220666F7E
:10070000726D6174006572726F723A20006F6B0DCA
:100710000A0011241FBECFEFD8E0DEBFCDBF11E02D
:10072000A0E0B1E0E0EBFAE602C005900D92A43043
:10073000B107D9F716E0A4E0B1E001C01D92A03FD7
:10074000B107E1F70E94CE2F0C9456350C940000AF
:1007500008950E94F40C089510920401209A28989C
:100760000895289808951F93182F80910401181751
:1007700049F00E94FD1D113011F4289A01C02898FB
:10078000109304011F910895F999FECF92BD81BD88
:10079000F89A80B50895F999FECF1FBA92BD81BD30
:1007A00060BD0FB6F894FA9AF99A0FBE0895CF93E8
:1007B000DF93EC01DB01BC01FA0120E01EC0822FB7
:1007C00090E0009739F420E0880F892F881F990B5B
:1007D000892B09F021E03C91F999FECF230FCB0141
:1007E000019611961FBA72BD61BD30BD0FB6F89467
:1007F000FA9AF99A0FBE3197BC01309701F74C0F66
:100800005D1FF999FECF1FBA52BD41BD20BD0FB685
:10081000F894FA9AF99A0FBEDF91CF910895CF9389
:10082000DF93EC01DB01FA0190E017C0F999FECFEC
:10083000B2BDA1BDF89A30B5892F90E0009739F488
:1008400020E0880F892F881F990B892B09F021E060
:100850001196922F930F39933197309739F7460FAE
:10086000571FF999FECF52BD41BDF89A80B520E0DF
:1008700030E0981711F421E030E0C901DF91CF9109
:100880000895AF92BF92CF92DF92EF92FF920F93B3
:100890001F9359016A010E94DE3120918706309131
:1008A00088064091890650918A060E9443316093E0
:1008B0001101709312018093130190931401C601EA
:1008C000B5010E94DE3120918B0630918C0640915B
:1008D0008D0650918E060E944331609315017093EE
:1008E00016018093170190931801C801B7010E9467
:1008F000DE3120918F063091900640919106509103
:1009000092060E9443316093190170931A018093FB
:100910001B0190931C011F910F91FF90EF90DF90AE
:10092000CF90BF90AF9008952F923F924F925F92D9
:100930006F927F928F929F92AF92BF92CF92DF92EF
:10094000EF92FF920F931F93DF93CF93CDB7DEB754
:10095000EE970FB6F894DEBF0FBECDBF3C0180917D
:100960003B01863011F48CE0ADC719828CE0FE01AA
:100970003696DF01482F1D924A95E9F7FE017296DF
:10098000DF011D928A95E9F7109205014424552450
:1009900022241AAE33243A94A3E0AA2EF2E0BF2E0A
:1009A00001E0E1E08E2E912CA5C12E313105C9F177
:1009B0002F313105D4F42431310584F4213131054E
:1009C000A4F52430310569F1253031051CF437FFD9
:1009D0002AC025C02A30310511F523C02631310542
:1009E00054F12C313105D9F41CC02C3531058CF46F
:1009F0002A353105E4F42C3331053CF42633310536
:100A0000E4F42533310559F40CC02035310539F4AF
:100A10000AC02C35310529F02F35310554F010E08E
:100A20000DC011E00BC012E009C013E007C014E0D4
:100A300005C016E003C017E001C019E025313105FB
:100A400009F494C026313105A4F52430310509F4A8
:100A500067C025303105A4F42130310509F465C0A3
:100A60002230310524F4232B09F45CC02EC122303E
:100A7000310509F45DC02330310509F026C15BC0A2
:100A80002231310509F461C0233131054CF42A309B
:100A9000310509F443C02131310509F016C14EC0BA
:100AA0002331310509F458C02431310509F00DC155
:100AB0005AC02035310509F491C021353105ACF417
:100AC0002533310509F482C0263331054CF42C312D
:100AD000310509F44EC02E31310509F0F6C049C088
:100AE0002C3331050CF0F1C074C02C35310509F4FC
:100AF0007FC02D3531054CF42A35310509F472C01B
:100B00002B35310509F0E1C070C02D35310509F4F0
:100B100089C02E35310509F0D8C087C0B2E04EC07B
:100B2000E1E04FC010920601D2C000930601CFC091
:100B3000B0920601CCC0A0920601C9C010921E015D
:100B400000931F01B0922001C2C010921E01B0920A
:100B50001F0100932001BBC000931E01B0921F0132
:100B600010922001B4C000930801B1C01092080196
:100B7000AEC0C701B60120E030E040E251E40E947F
:100B80001C340E94F6340E94AB31F1E069317F07DA
:100B900091F041E06A3174072CF46851714009F01A
:100BA00094C00BC081E06C32780751F06D527140F7
:100BB00009F08BC008C0A4E033C0B3E0BAAF87C06F
:100BC000E5E0EAAF84C0F6E0FAAF81C022242394C6
:100BD0007EC0822F86538093210179C044E04093E8
:100BE000060175C00093090172C0109209016FC01F
:100BF000C701B60120E030E040E251E40E941C341D
:100C00000E94F6340E94AB3153E06839750739F021
:100C10006959734009F059C098E09AAF58C0A7E0ED
:100C2000AAAF55C00093070152C0109207014FC0F0
:100C30002630310534F42330310554F4772334F46D
:100C400003C02E31310511F010E003C015E001C0E2
:100C500018E02430310569F12530310584F4213064
:100C60003105A9F1223031051CF4232BC9F02DC028
:100C700022303105C1F02330310539F517C0283055
:100C80003105E9F02930310524F425303105E9F446
:100C900013C029303105B1F02E313105B1F403C054
:100CA00000930A0114C0B0920A0111C000930B0115
:100CB0000EC030920B010BC010920B0108C00093C4
:100CC0000C0105C010920C0102C0A0920501112375
:100CD00089F0940102C0220F331F1A95E2F7C9016F
:100CE00084219521892B21F0B5E0B093050102C044
:100CF000422A532A9981F301E90FF11D1081112332
:100D0000B9F0812F81548A3110F082E00FC09F5FCB
:100D10009983C301BE016F5F7F4FAE014E5F5F4F8E
:100D20000E949D14892B09F0E6C581E0809305019E
:100D300080910501882309F0C5C5198299241BAE4D
:100D40001CAEE0E8EDAFFFEBFEAF0F2EF0E0AF2EF4
:100D5000F0E0BF2EF0E0CF2EF0E0DF2EF02DAEAAB7
:100D6000BFAAC8AED9AE882476E0372E10C1EA807B
:100D7000FB800C811D81C801B70120E030E040E01C
:100D800050E00E943C31181614F030920501809119
:100D90000701882381F080910801882309F4F1C0BC
:100DA000C801B70123E333E34BEC51E40E941C3448
:100DB0007B018C01E6C080910801882351F0C801B5
:100DC000B70123E333E34BEC51E40E941C347B0175
:100DD0008C01E0920D01F0920E0100930F0110932F
:100DE0001001C9C02A813B814C815D81809108013D
:100DF000882351F0CA01B90123E333E34BEC51E4FA
:100E00000E941C349B01AC01E12FFF27E7FDF09508
:100E1000E954F040EE0FFF1FEE0FFF1F61E070E09E
:100E20006C0F7D1FE60FF71F218B328B438B548B8A
:100E3000A2C06A817B818C819D810E94F6340E94D0
:100E4000B031862E98C0AA80BB80CC80DD8093C054
:100E50008A819B81AC81BD818EAB9FABA8AFB9AFBE
:100E600080910801882309F486C06EA97FA988AD06
:100E700099AD23E333E34BEC51E40E941C346EAB99
:100E80007FAB88AF99AF77C06A817B818C819D8170
:100E900020E030E040E050E00E943C3188230CF03C
:100EA0006AC03092050167C0EA80FB800C811D8119
:100EB000C801B70120E030E040E050E00E943C3142
:100EC000882314F430920501C801B7010E94F6345A
:100ED0000E94B03160931D014EC02A813B814C813C
:100EE0005D8180910801882351F0CA01B90123E393
:100EF00033E34BEC51E40E941C349B01AC012E8384
:100F00003F834887598791E0992A35C02A813B81E0
:100F10004C815D8180910801882351F0CA01B9019B
:100F200023E333E34BEC51E40E941C349B01AC01FE
:100F30002A873B874C875D87A2E09A2A1CC02A81BA
:100F40003B814C815D8180910801882351F0CA0169
:100F5000B90123E333E34BEC51E40E941C349B01C1
:100F6000AC012E873F87488B598BB4E09B2A03C086
:100F7000E3E0E09305018BAD9CADADADBEAD7C0172
:100F80008D01D801C701EBAE9CAFADAFBEAF99816B
:100F9000F301E90FF11D10811123B9F0812F815464
:100FA0008A3110F082E00FC09F5F9983C301BE01B8
:100FB0006F5F7F4FAE014E5F5F4F0E949D14892B84
:100FC00009F0ABC481E0809305018091050188237D
:100FD00009F078C480913B01873041F080910B018A
:100FE0000E94132A80910C010E94B30351FE13C08A
:100FF0008E01025E1F4F80912101B8010E94852958
:10100000882309F45EC4A2E2B1E0F8018CE001900B
:101010000D928150E1F7FAADF43009F45DC1F5307D
:1010200048F4F23051F1F33008F0AAC0F13009F081
:10103000ABC10EC04AAD463009F44EC1463008F48B
:101040009FC0473009F453C1483009F09DC193C196
:10105000C601B50120E030E040E050E00E943C31A4
:1010600088230CF446C180913B01873009F48CC180
:10107000C601B5010E941D1087C152E0851619F006
:1010800064E1861651F4C601B5010E94F6340E944F
:10109000AB31CB010197069720F083E080930501E7
:1010A00072C1992021F482E0881609F422C17B01E3
:1010B0000894E108F10894E18916B1F48E2D61E1FC
:1010C00071E00E947A298091210190E08E159F05A0
:1010D00009F059C1E2E2F1E0DF0151978CE00D9097
:1010E00001928150E1F74FC18E2C3EE1A32EB12C2D
:1010F000AC0EBD1E8E2DB5010E948529882309F4F2
:10110000E0C300E010E040E050E0C92CDD24BE0167
:101110006A5F7F4FC601002E02C0959587950A949D
:10112000E2F780FF0FC09501240F351FFB01E40F8C
:10113000F51F80819181A281B381F9018083918320
:10114000A283B3830F5F1F4F4C5F5F4F03301105C6
:1011500009F78E01025E1F4F882DB8010E947A297F
:101160008091210190E08E159F0509F00CC1A2E24B
:10117000B1E0F8018CE001900D928150E1F703C1DC
:10118000992009F478C08E010A5F1F4F21E1E22EF9
:1011900021E0F22ECC24DD24A92CBB24C5010C2C8B
:1011A00002C0959587950A94E2F780FF35C080913B
:1011B00009018823F9F0D70151966D917D918D91A8
:1011C0009C9154975D962D913D914D915C91909796
:1011D0000E9463309B01AC01F801608171818281C2
:1011E00093810E946330D8016D937D938D939C937E
:1011F00013971CC0F8016081718182819381D701AE
:101200002D913D914D915C910E946330F801608376
:101210007183828393830AC0F70180819181A281C7
:10122000B381F80180839183A283B3830894C11CA6
:10123000D11C0C5F1F4F44E050E0E40EF51E53E05C
:10124000C516D10409F0AACF6E817F818885998562
:101250002A853B854C855D85EE84FF840889198944
:10126000A0909906B0909A06C0909B06D0909C06DC
:1012700088240E9471106AAD653011F487E001C0C6
:1012800086E09AE2692E712C6C0E7D1EB3010E94DD
:101290008529882309F415C36AA57BA58CA59DA57E
:1012A0002EA53FA548A959A9EAA8FBA80CA91DA9E4
:1012B000A0909906B0909A06C0909B06D0909C068C
:1012C00088240E947110A1E1B1E0F3018CE001904B
:1012D0000D928150E1F757C07AAD763011F487E076
:1012E00001C086E061E171E00E947A294DC0992039
:1012F00021F486E08093050147C001E111E086E01A
:10130000C82ED12CCC0EDD1EEE24FF24A92CBB242C
:10131000C5010E2C02C0959587950A94E2F780FFCF
:101320001CC0D8016D917D918D919C911397519620
:101330002D913D914D915C9154970E946230F60140
:1013400020813181428153810E946230D8015D96B3
:101350006D937D938D939C9390970894E11CF11C61
:101360000C5F1F4FE4E0F0E0CE0EDF1EF3E0EF165F
:10137000F10471F608C08CE0EEE2F1E0DF011D92AD
:101380008A95E9F701C0992442FC03C0992009F429
:1013900084C280910701882399F06BAD7CAD8DAD3F
:1013A0009EAD20E030E040E050E00E943C318823D8
:1013B0003CF480910601843019F086E080930501A9
:1013C000222039F080910601823018F086E0809367
:1013D000050180910501882309F074C28E010A5F1E
:1013E0001F4FB1E1EB2EB1E0FB2ECC24DD24A92C64
:1013F000BB24C5010C2C02C0959587950A94E2F791
:1014000080FF33C02220D9F5809109018823D1F0D3
:10141000F7016189728983899489258D368D478D7D
:1014200050A10E9463309B01AC01D8016D917D9168
:101430008D919C910E946330F80160837183828357
:1014400093831DC0D8016D917D918D919C91F70181
:1014500020813181428153810E946330D8016D9394
:101460007D938D939C9313970AC0F701808191819E
:10147000A281B381F80180839183A283B38308940E
:10148000C11CD11C0C5F1F4F44E050E0E40EF51E60
:1014900053E0C516D10409F0ACCF80910601843029
:1014A00048F4823008F04CC0882359F0813009F0AC
:1014B000E7C120C0843009F0E3C1992009F4E0C1FC
:1014C0008CC0992009F489C06E817F8188859985B7
:1014D0002A853B854C855D85EE84FF8408891989C2
:1014E000A0909906B0909A06C0909B06D0909C065A
:1014F000882423C0992009F470C06E817F8188857B
:1015000099852A853B854C855D85EE84FF84088915
:10151000198980900701882061F4A0910D01ABAF7B
:10152000B0910E01BCAFE0910F01EDAFF091100151
:10153000FEAFABACBCACCDACDEAC0E947110A0C1B8
:1015400081E090E00090200102C0880F991F0A946A
:10155000E2F78095982209F440C06EA97FA988AD72
:1015600099AD20E030E040E050E00E943C3188231B
:10157000C1F5E0911E01F0E0EE0FFF1FEE0FFF1F1F
:101580008E010F5F1F4FE00FF11FC188D288E388E3
:10159000F488C701B60120E030E040E050E00E944E
:1015A0003C31882309F0E4C180911F0190E0880F4D
:1015B000991F880F991F080F191FD80151966D9117
:1015C0007D918D919C91549720E030E040E050E077
:1015D0000E943C31882309F0CBC186E0809305014D
:1015E0004FC1E0911E01F0E0EE0FFF1FEE0FFF1F55
:1015F0008E010F5F1F4FD801AE0FBF1FEF5EFE4F72
:1016000015966D917D918D919C91189720813181D6
:10161000428153810E9462301B012C01E0911F0125
:10162000F0E0EE0FFF1FEE0FFF1F0E0F1F1FEF5E0C
:10163000FE4FD80115966D917D918D919C911897D3
:1016400020813181428153810E9462303B014C01F3
:101650008CE0FE017296DF011D928A95E9F76EA972
:101660007FA988AD99AD20E030E040E850E40E94C9
:101670001C342EA93FA948AD59AD0E941C347B01F2
:101680008C01C201B101A20191010E941C349B0195
:10169000AC01C801B7010E9462307B018C01C4011A
:1016A000B301A40193010E941C349B01AC01C80149
:1016B000B7010E9462307B018C0120E030E040E005
:1016C00050E00E943C31882324F484E0809305019B
:1016D000F9C0C801B7010E94A9347B018C01C20185
:1016E000B101A40193010E9457339B01AC0117FB88
:1016F000109517F91095C801B7010E9443316B018D
:101700007C0180910601833021F4F7FAF094F7F818
:10171000F0946EA97FA988AD99AD20E030E040E05B
:1017200050E00E943C3188236CF4F7FAF094F7F80B
:10173000F0944EA95FA968AD79AD70584EAB5FAB20
:1017400068AF79AF00911E01A02EBB24AA0CBB1C70
:10175000AA0CBB1C8E010F5F1F4FA00EB11EC4014F
:10176000B301A70196010E941C349B01AC01C20188
:10177000B1010E94623020E030E040E05FE30E946F
:101780001C34D50151966D937D938D939C93549702
:1017900080911F0190E0880F991F880F991F080FF3
:1017A000191FC201B101A70196010E941C349B01BF
:1017B000AC01C401B3010E94633020E030E040E09E
:1017C0005FE30E941C34F801618B728B838B948BD6
:1017D00015C0E0911F01F0E0EE0FFF1FEE0FFF1F9D
:1017E000EC0FFD1F2289338944895589C701B60151
:1017F0000E9457336EAB7FAB88AF99AF90910601D3
:1018000020911E0100911F01E090200180900701AE
:10181000882061F4F0910D01FBAF40910E014CAFB7
:1018200050910F015DAF609110016EAF00D000D0FC
:101830000F92EDB7FEB731964EA95FA968AD79ADAD
:10184000ADB7BEB711964D935D936D937C9314978E
:1018500080E0923009F481E0848381E191E0BE016F
:101860006A5F7F4FAE014E5E5F4FABACBCACCDACA0
:10187000DEAC0E9463110F900F900F900F900F90AD
:10188000809105018823F1F4A1E1B1E0FE013696D3
:101890008CE001900D928150E1F780910A0188233C
:1018A00069F00E94FD1D1092490180910A01823069
:1018B00019F40E94031002C010920A0180910501E0
:1018C00001C08AE0EE960FB6F894DEBF0FBECDBF22
:1018D000CF91DF911F910F91FF90EF90DF90CF900C
:1018E000BF90AF909F908F907F906F905F904F9040
:1018F0003F902F900895CA80DB80EC80FD80C70167
:10190000B6010E94F6340E94AB319B01173409F4F2
:101910004CC81D3409F0EEC98BC91F3484F41D3442
:101920000CF029CB1C340CF084CA19340CF05ACAC0
:10193000163409F41CCA173409F01ACB1CCB143521
:1019400009F4B2CA153554F4123509F481CA1335B5
:101950000CF09ACA103509F00BCB75CA193509F489
:10196000D5CA1A3509F4EBCA183509F001CBB5CA46
:101970006EA97FA988AD99AD20E030E040E050E04D
:101980000E943C31882309F424CF2BCEE5E0F1E01E
:1019900085E3DF011D928A95E9F780919506909184
:1019A0009606A0919706B091980680930D019093AA
:1019B0000E01A0930F01B093100110921E0191E04F
:1019C00090931F0182E08093200190930901809100
:1019D0002101BF01635E7F4F0E948529882319F48E
:1019E0008AE00E942E2208950F931F938CE38AB9F8
:1019F0008FE087B90E94A3260E94AC290E94522B37
:101A0000789480E1EAE3F1E0DF011D928A95E9F73D
:101A100081E080933A0180933B0106E011E08091E0
:101A20003A01882389F10E9418270E94111E0E9402
:101A3000C60C0E94E7210E940B2A0E94AC030E9460
:101A4000490D0E94252B0E94A21510923A01109276
:101A50003C018091AA06982F81FF02C01093490192
:101A600080913B01813021F494FF02C000933B013F
:101A700080913B01863021F482E00E94042204C060
:101A800010923B010E9428200E94C71F0E949821AB
:101A9000C6CF2198299A8091AA0683FF09C0809118
:101AA0006B00826080936B0080916800816008C049
:101AB00080916B008D7F80936B00809168008E7F9A
:101AC0008093680008952F923F924F925F926F9299
:101AD0007F928F929F92AF92BF92CF92DF92EF92BE
:101AE000FF920F931F93DF93CF93CDB7DEB7A997E4
:101AF0000FB6F894DEBF0FBECDBF8EA36FA348A76D
:101B000038014901FE0131968CE0DF011D928A9572
:101B1000E9F70EA100FD02C010E00FC0609187063A
:101B2000709188068091890690918A060E94EC3314
:101B300069837A838B839C8311E001FF0FC01F5F51
:101B400060918B0670918C0680918D0690918E0627
:101B50000E94EC336D837E838F83988702FF0FC0D2
:101B60001F5F60918F067091900680919106909111
:101B700092060E94EC3369877A878B879C8729813C
:101B80003A814B815C816D817E818F81988562175E
:101B900073078407950710F4CA01B90129853A85AE
:101BA0004B855C851B012C01621773078407950721
:101BB00010F419012A01612F70E080E090E00E948A
:101BC000DC310E94A9345B016C01C201B1010E94A9
:101BD000DC31A60195010E9443317B018C012091EB
:101BE000A2063091A3064091A4065091A5060E943A
:101BF0001C3420E030E84BE355E40E9443310E945E
:101C000029310E94B0316AA37BA38CA39DA3C40198
:101C1000B301A60195010E941C349B01AC01C801CF
:101C2000B7010E941C349B01AC0160EC71EE84E6AC
:101C30009CE40E9443310E94EC337B018C01B8EF9D
:101C4000EB16B4E2FB06B1E00B07B0E01B0718F49B
:101C50005701680107C038EFA32E34E2B32E31E0FC
:101C6000C32ED12C2091AB06217C80919D06282784
:101C700029A33FA1332319F481EC282729A3D201FA
:101C8000C101B695A795979587956624772443015A
:101C9000681A790A8A0A9B0A80919406B601A501FE
:101CA000481B5109610971094D8B5E8B6F8B788FD1
:101CB0006D8E7E8E8F8E98A2698E7A8E8B8E9C8E84
:101CC000198A1A8A1B8A1C8A60E177E280E090E018
:101CD0006D877E878F87988B79A181E0782779A798
:101CE00033B198A5992311F0A2E03A27BEA1B0FF25
:101CF0001AC089819A81AB81BC81680E791E8A1EC7
:101D00009B1E16141704180419046CF431FF02C04A
:101D100029A504C02EA12E7F2EA329A16218730825
:101D20008408950801C029A14EA141FF29C08D81D9
:101D30009E81AF81B8854D8D5E8D6F8D78A1480FE6
:101D4000591F6A1F7B1F4D8F5E8F6F8F78A31416EC
:101D5000150616061706A4F431FF03C051E0252727
:101D600003C06EA16D7F6EA38D8D9E8DAF8DB8A1CA
:101D700082199309A409B5098D8F9E8FAF8FB8A3DF
:101D80009EA192FF29C089859A85AB85BC85498D26
:101D90005A8D6B8D7C8D480F591F6A1F7B1F498F91
:101DA0005A8F6B8F7C8F1416150616061706C4F40F
:101DB00031FF03C051E0252703C06EA16B7F6EA3E6
:101DC000898D9A8DAB8DBC8D82199309A409B509B3
:101DD000898F9A8FAB8FBC8F9EA1992309F46FC016
:101DE00080913C0184FF50C06AC02D853E854F859F
:101DF00058892A0D3B1D4C1D5D1D2D873E874F8741
:101E0000588B21326EE4360760E0460760E05607E3
:101E100008F466CF20523E44404050402D873E8714
:101E20004F87588B89899A89AB89BC892AA13BA1A4
:101E30004CA15DA1820F931FA41FB51F898B9A8BA4
:101E4000AB8BBC8B60E077E883E993E029893A8922
:101E50004B895C890E943435C901DA015C016D014E
:101E6000AE14BF04C006D10610F45701680180917A
:101E70009406B601A501481B5109610971094D8BF2
:101E80005E8B6F8B788F2CCF85B121708E7F282B46
:101E900025B96091940670E080E090E00E946215A0
:101EA00059A155B96D897E898F89988D0E946215D7
:101EB000EA14FB040C051D0508F497CF11CFA99671
:101EC0000FB6F894DEBF0FBECDBFCF91DF911F914B
:101ED0000F91FF90EF90DF90CF90BF90AF909F90C9
:101EE0008F907F906F905F904F903F902F900895CC
:101EF000FF920F931F930E942F2A0091B00610911A
:101F0000B1062091B2063091B30684E061E040E072
:101F10000E94630D0091B0061091B1062091B206A7
:101F20003091B30683E061E040E00E94630D809150
:101F3000B4069091B5060E94581542E0F42EFA942A
:101F40000091AC061091AD062091AE063091AF061F
:101F500087E060E041E00E94630D8091B4069091BB
:101F6000B5060E94581581E0F816A1F40091AC0660
:101F70001091AD062091AE063091AF0687E061E08A
:101F800040E00E94630D8091B4069091B5060E94D6
:101F90005815D5CFFF2099F60E94392B1F910F912C
:101FA000FF9008951F920F920FB60F9211242F9356
:101FB0003F934F935F936F937F938F939F93AF93D1
:101FC000BF93EF93FF9380913B01863059F080914E
:101FD0003C0185FD07C00E94031080913C01806494
:101FE00080933C01FF91EF91BF91AF919F918F91B1
:101FF0007F916F915F914F913F912F910F900FBE05
:102000000F901F90189580913C0184FD15C0809120
:102010003C01806180933C010E94112A0E94B1031F
:1020200080913B018350833038F480913C01806281
:1020300080933C010E94392B0895EF92FF920F93F9
:102040001F93CF93DF937B018C0120E030E040EAC7
:1020500051E40E941C340E9419320E94B031EB01FD
:102060000E94FD1DC801B70120E030E04AE754E4BA
:102070000E941C347B018C0182E390E0C89FB00178
:10208000C99F700DD89F700D112480E090E00E94D0
:10209000DC319B01AC01C801B7010E9462300E9493
:1020A00019320E94B031DC01CB010E94581500E9C1
:1020B00011E00EC00E94C71F80913A01882351F49D
:1020C00084EF91E0F8013197F1F70197D9F7219763
:1020D000209781F7DF91CF911F910F91FF90EF90A3
:1020E00008954F925F926F927F928F92AF92BF92BC
:1020F000CF92DF92EF92FF920F931F93DF93CF93D4
:1021000000D000D0CDB7DEB72B013C0129833A8344
:102110004B835C8380913B018730F9F00E94C71F9D
:1021200080913A018823C9F40E9401168823B1F7EF
:10213000C301B20129813A814B815C810E94D81987
:1021400080913B01882319F482E080933B018091C8
:102150004901882311F00E94D02A0F900F900F9010
:102160000F90CF91DF911F910F91FF90EF90DF9033
:10217000CF90BF90AF908F907F906F905F904F9077
:1021800008952F923F924F925F926F927F928F921B
:102190009F92AF92BF92CF92DF92EF92FF920F93F6
:1021A0001F9385E080933B0180916B008D7F80932E
:1021B0006B000E94780F0E94C71F80913A0188230C
:1021C00009F070C08CE0EDE3F1E0DF011D928A952B
:1021D000E9F70E94A21510923B012091AB06322F25
:1021E00026FD02C06FEF01C061E027FD03C0DD24C2
:1021F000DA9402C0DD24D39430FD03C0CC24CA9409
:1022000002C0CC24C394E090B606F090B7060091CB
:10221000B8061091B906772767FD7095872F972F1D
:102220000E94DE31A80197010E941C341B012C0181
:102230006D2D772767FD7095872F972F0E94DE31D0
:10224000A80197010E941C343B014C016C2D77279B
:1022500067FD7095872F972F0E94DE31A8019701A7
:102260000E941C347B018C01A090B006B090B10696
:10227000C090B206D090B306C201B101A40193018F
:1022800088240E9471100E94D02A0E94FD1D0E9485
:10229000A2158091AA0683FF05C080916B00826021
:1022A00080936B001F910F91FF90EF90DF90CF9084
:1022B000BF90AF909F908F907F906F905F904F9066
:1022C0003F902F9008952F923F924F925F926F927E
:1022D0007F928F929F92AF92BF92CF92DF92EF92B6
:1022E000FF920F931F93DF93CF93CDB7DEB7CE54FA
:1022F000D0400FB6F894DEBF0FBECDBF3C017EAF1D
:102300006DAF21965FAF4EAF219722962FAF2297E8
:1023100023960FAF23972496EFAE24972896ACAE62
:10232000BDAECEAEDFAE289729968FAE2997E22EAE
:10233000FF24EE0CFF1CEE0CFF1C4E0D5F1D5CAF6E
:102340004BAFDA012D903D904D905C90FC01EE0D6D
:10235000FF1DC201B10120813181428153810E9460
:10236000633069AB7AAB8BAB9CAB10E0000F111FF5
:10237000000F111F2196EEADFFAD2197E00FF11F69
:10238000FAAFE9AFA080B180C280D380F301E00F43
:10239000F11FC601B50120813181428153810E9424
:1023A00063306DA77EA78FA798AB24962FAD249797
:1023B000E22FF0E0EE0FFF1FEE0FFF1F6E0E7F1EED
:1023C000D3018D919D910D90BC91A02D8DAB9EABB5
:1023D000AFABB8AF2DAD3EADE20FF31F60817181A1
:1023E000828193812DA93EA94FA958AD0E946230E8
:1023F00069A77AA78BA79CA7D201C101B0588DA36A
:102400009EA3AFA3B8A7A6019501505829A33AA34C
:102410004BA35CA34DAD5EADE40EF51ED7016D91EF
:102420007D918D919C9129A93AA94BA95CA90E9403
:1024300062303B014C01EDADFEAD0E0F1F1FD80108
:102440006D917D918D919C912DA53EA54FA558A98B
:102450000E9462305B016C016DA17EA18FA198A5E5
:10246000A60195010E941C347B018C0169A17AA10F
:102470008BA19CA1A40193010E941C349B01AC017F
:10248000C801B7010E9462301B012C016DA17EA121
:102490008FA198A5A40193010E941C347B018C019B
:1024A00069A17AA18BA19CA1A60195010E941C346F
:1024B0009B01AC01C801B7010E9463309B01AC01D4
:1024C000C201B1010E94D6305B016C01A8968FADAC
:1024D000A897882399F0C601B50120E030E040E0DC
:1024E00050E00E944A338823ECF0C601B5012BED81
:1024F0003FE049EC50E40E94623012C0C601B501D1
:1025000020E030E040E050E00E943C31181654F0EA
:10251000C601B5012BED3FE049EC50E40E94633069
:102520005B016C01C601B501A7962CAD3DAD4EAD6A
:102530005FADA7970E941C3429A53AA54BA55CA5C1
:102540005F770E9457337B018C0120E030E040E050
:1025500050E00E943C31882309F4D5C1C801B7017D
:1025600020919E0630919F064091A0065091A106B1
:102570000E9443310E9419320E94B03178A36F8FBC
:102580002996BFAD2997BB23A1F080E090E00E947F
:10259000DC319B01AC0128966CAD7DAD8EAD9FAD5D
:1025A00028970E941C3428966CAF7DAF8EAF9FAFEA
:1025B00028972F8D38A1B90180E090E00E94DC318E
:1025C0007B018C01C601B501A80197010E9443312E
:1025D0006B8F7C8F8D8F9E8F69A57AA58BA59CA50F
:1025E000A80197010E9443316F8B788F898F9A8F52
:1025F0006B8D7C8D8D8D9E8D20E030E040E05FEB1B
:102600000E941C342B8D3C8D4D8D5E8D0E941C34A0
:1026100020E030E040E85FE30E9463306B8B7C8B0E
:102620008D8B9E8B24963FAD2497E32FF0E0EE0F29
:10263000FF1FEE0FFF1FCE010196E80FF91F2DA916
:102640003EA94FA958AD208331834283538341E093
:1026500050E05E874D8766242296BFAD2297AB2F50
:10266000B0E0AA0FBB1FAA0FBB1FA80FB91F2B9664
:10267000BFAFAEAF2B9723963FAD2397232F30E00C
:10268000220F331F220F331F280F391F2D963FAF04
:102690002EAF2D972F96FFAFEEAF2F970EC1262DA1
:1026A000332727FD30958091BC0690E02817390725
:1026B0000CF046C06DA17EA18FA198A52B8D3C8DFD
:1026C0004D8D5E8D0E941C347B018C0169A17AA125
:1026D0008BA19CA12B893C894D895E890E941C3469
:1026E0009B01AC01C801B7010E9463307B018C01E2
:1026F0006DA17EA18FA198A52B893C894D895E890A
:102700000E941C345B016C0169A17AA18BA19CA180
:102710002B8D3C8D4D8D5E8D0E941C349B01AC0138
:10272000C601B5010E9462306DA37EA38FA398A756
:102730006394C701D80189A39AA3ABA3BCA361C0CA
:102740004D855E85BA0180E090E00E94DC312B8DE2
:102750003C8D4D8D5E8D0E941C347B018C01C80127
:102760000E9440316F87788B898B9A8BB701C801A3
:102770000E949F343B014C01ABADBCADED90FD9090
:102780000D911C9117FB109517F91095E9ADFAAD55
:102790002080318042805380C801B7012F8538895D
:1027A00049895A890E941C345B016C01C201B10144
:1027B000A40193010E941C349B01AC01C601B50128
:1027C0000E9463306DA37EA38FA398A7C801B701B1
:1027D000A40193010E941C347B018C01C201B10150
:1027E0002F85388949895A890E941C349B01AC0184
:1027F000C801B7010E94623069A37AA38BA39CA38E
:10280000662469A97AA98BA99CA92DA13EA14FA1F3
:1028100058A50E9463302B96AEADBFAD2B976D933C
:102820007D938D939C9313976DA57EA58FA598A9F5
:1028300029A13AA14BA15CA10E9463302D96EEAD77
:10284000FFAD2D9760837183828393832F96AEAD06
:10285000BFAD2F976D917D918D919C912F89388D72
:10286000498D5A8D0E9463302F96EEADFFAD2F97A4
:10287000608371838283938369817A818B819C8158
:102880002D813E814F815885E984FA840B851C8512
:102890002896ACACBDACCEACDFAC289729968FACFB
:1028A00029970E94711080913A01882361F52D8546
:1028B0003E852F5F3F4F3E872D874D855E858F8DEF
:1028C00098A14817590708F4EACEADADBEAD6D9199
:1028D0007D918D919C91139714962D913D914D91E1
:1028E0005C9117971896ED90FD900D911C911B9798
:1028F0002896ACACBDACCEACDFAC289729968FAC9B
:1029000029970E947110C25BDF4F0FB6F894DEBFAB
:102910000FBECDBFCF91DF911F910F91FF90EF9030
:10292000DF90CF90BF90AF909F908F907F906F90EF
:102930005F904F903F902F9008956F927F928F926B
:102940009F92AF92BF92CF92DF92EF92FF920F933E
:102950001F93CF93DF934C013B015A01FB01808110
:10296000F401E80FF11DEF0189918D3229F4818185
:102970002196CC24C39405C08B3211F48181219619
:10298000CC2420E030E040E050E0DD24E0E070E0E6
:10299000682F60536A30F8F4EF5FE930C0F47111CA
:1029A000DA94DA01C901F2E0880F991FAA1FBB1F50
:1029B000FA95D1F7280F391F4A1F5B1F220F331FCB
:1029C000441F551F260F311D411D511D09C077237E
:1029D00039F4D39405C06E3F29F4772319F471E0DC
:1029E0008991D6CFEE2319F420E030E051C0CA011E
:1029F000B9010E94DC317B018C0120E030E040E035
:102A000050E00E943C31882369F42BC0C801B70113
:102A10002AE037ED43E25CE30E941C347B018C0129
:102A2000F2E0DF0E8FEFD8168CF3D81659F4C801F8
:102A3000B7012DEC3CEC4CEC5DE30E941C347B01B7
:102A40008C010FC0DD2069F0C801B70120E030E043
:102A500040E251E40E941C347B018C01DA941D1485
:102A60009CF3CC2049F0D801C701B058F501808310
:102A70009183A283B38305C0F501E082F1820283D2
:102A80001383882D80958C0FF301808321E030E043
:102A9000C901DF91CF911F910F91FF90EF90DF90CF
:102AA000CF90BF90AF909F908F907F906F90089540
:102AB00020EA3FE004C0F9013197F1F70197009750
:102AC000D1F708951F93A0EABFE040E951E015E374
:102AD00035E031C06A3071058105910540F4232F3E
:102AE0002A95F1F7615070408040904024C06436D0
:102AF00071058105910540F4212F2A95F1F76A505F
:102B000070408040904017C0683E23E0720720E08C
:102B1000820720E0920740F4FA013197F1F76456FA
:102B200070408040904007C0FD013197F1F7685E2A
:102B3000734080409040611571058105910551F603
:102B40001F910895EF92FF920F931F9360913D01A3
:102B500070913E0180913F0190914001209141018F
:102B6000309142014091430150914401E090450170
:102B7000F090460100914701109148010E940B1608
:102B800060913D0170913E0180913F019091400123
:102B90002091410130914201409143015091440103
:102BA000E0904501F09046010091470110914801E5
:102BB0000E9441041F910F91FF90EF900895909112
:102BC000710580914A01981741F080914A018F5F09
:102BD000823109F480E080934A0108959091710553
:102BE00080914A01981719F420E030E008C09091D4
:102BF0004A018BE3989F90011124255B3E4FC90148
:102C0000089590914A0120E080918E05981709F46B
:102C100021E0822F0895EF92FF920F931F9360930C
:102C200072057093730580937405909375052093D6
:102C30007605309377054093780550937905E092B7
:102C40007A05F0927B0500937C0510937D051F911A
:102C50000F91FF90EF9008953F924F925F926F9285
:102C60007F928F929F92AF92BF92CF92DF92EF921C
:102C7000FF920F931F93CF93DF93909071058091F4
:102C8000A2069091A306A091A406B091A5062C01DE
:102C90003D0177FA709477F87094C0E0D0E000E0DE
:102CA00010E0332433949BE3892E71C0992011F4F2
:102CB00082E1982E9A94209719F400E010E062C007
:102CC0000115110509F45DC0D98CCA8CBB8CAC8C84
:102CD0006D897E898F89988D2D2D3C2D4B2D5A2DF8
:102CE0000E943C31882309F44CC08AA1882309F052
:102CF0003FC0F801E588F6880789108D6D2D7C2D81
:102D00008B2D9A2DA80197010E944A33181684F53D
:102D1000C801B701A80197010E941C347B018C01F6
:102D2000C301B20120E030E040E050EC0E941C34CE
:102D30002D8D3E8D4F8D58A10E941C349B01AC01FE
:102D4000C801B7010E9463300E94A934162F072FD3
:102D5000F82EE92E6D2D7C2D8B2D9A2D212F302FC5
:102D60004F2D5E2D0E943C3187FD02C06801570146
:102D70008D2D9C2DAB2DBA2D8D8B9E8BAF8BB88F4F
:102D800039A28E01989CE0011124C55BDE4F809131
:102D90004A01981609F08ACFDF91CF911F910F91C8
:102DA000FF90EF90DF90CF90BF90AF909F908F906B
:102DB0007F906F905F904F903F9008958F929F9279
:102DC000AF92BF92CF92DF92EF92FF920F931F9339
:102DD000CF93DF93EC016B01009709F460C08AA1E7
:102DE000882309F05CC0ED88FE880F89188DFB01EF
:102DF000B588A6889788808CC801B7012B2D3A2DFD
:102E0000492D582D0E943C3188230CF048C0C80140
:102E1000B701A80197010E941C347B018C016091CD
:102E2000A2067091A3068091A4069091A5069058E1
:102E300020E030E040E050EC0E941C342D8D3E8DAF
:102E40004F8D58A10E941C349B01AC01C801B701F1
:102E50000E9463300E94A9347B018C016B2D7A2D76
:102E6000892D982D9701A8010E943C31882324F4D4
:102E7000EB2CFA2C092D182D6B2D7A2D892D982DE0
:102E80009701A8010E943C31882349F0C701D8016D
:102E9000F601858B968BA78BB08F81E081A3DF91A4
:102EA000CF911F910F91FF90EF90DF90CF90BF9047
:102EB000AF909F908F900895EF92FF920F931F9382
:102EC000CF93DF93F0904A0100E010E020E030E083
:102ED0004BE3E42E11C0FE9CE0011124C55BDE4FE4
:102EE000C901B801AE010E94DE16F39482E1F81622
:102EF00009F4FF2498018E0180917105F81659F7A5
:102F0000C901B80140E050E00E94DE16DF91CF9188
:102F10001F910F91FF90EF9008952F923F924F9243
:102F20005F926F927F928F929F92AF92BF92CF9259
:102F3000DF92EF92FF920F931F93DF93CF93CDB762
:102F4000DEB768970FB6F894DEBF0FBECDBF1C0189
:102F50006A017B0128013901DC01D7966D917D91D1
:102F60008D919C91DA970E94DC314B015C01A701A5
:102F700096010E941C340E9429310E94B0317B01CD
:102F80008C01F10163A374A385A396A3C501B401C9
:102F9000A30192010E941C340E9429310E94B03189
:102FA0006D837E838F839887D10197966D937D93F0
:102FB0008D939C939A979B966D917D918D919C9109
:102FC0009E9722E330E040E050E00E9415350E94D9
:102FD000DE3120E030E040E752E40E941C340E94E1
:102FE000AB312B013C01C801B7010E94DC317B01F0
:102FF0008C01C301B2010E94DE3169837A838B8325
:103000009C83C501B401A50194010E941C345B019D
:103010006C01C801B701A80197010E941C3469879F
:103020007A878B879C8769817A818B819C819B01C0
:10303000AC010E9463306D877E878F87988BC601B5
:10304000B50129853A854B855C850E9462302D85C6
:103050003E854F8558890E9443310E9429310E9444
:10306000AB31698B7A8B8B8B9C8B6D817E818F8151
:1030700098850E94DC319B01AC010E941C346D8B51
:103080007E8B8F8B988FA60195010E9462307B0109
:103090008C017094609450944094411C511C611CAC
:1030A000711CC301B2010E94DE319B01AC010E9480
:1030B00063309B01AC01C801B7010E9443310E94FB
:1030C0001932F101A584B684C784D08886017501C0
:1030D00029893A894B895C89E21AF30A040B150B9A
:1030E0000E94AB31A8019701261B370B480B590BE7
:1030F000DA01C90157FD05C0A988BA88CB88DC88E8
:1031000042C0C601B5010E94DE319B01AC016D8554
:103110007E858F8598890E941C3429853A854B8548
:103120005C850E9462302D893E894F89588D0E94AE
:1031300063307B018C0169817A818B819C8120E0E5
:1031400030E040E850E40E941C349B01AC01C8010F
:10315000B7010E9443310E9429310E94AB31AC017A
:10316000CB01DA01B7FF04C080E090E0A0E0B0E05E
:103170008A159B05AC05BD0514F45C016D0180E06A
:1031800090E0A0E0B0E0F101A7A6B0AAC1AAD2AA3F
:103190008A0D9B1DAC1DBD1D83AB94ABA5ABB6AB1F
:1031A00068960FB6F894DEBF0FBECDBFCF91DF910A
:1031B0001F910F91FF90EF90DF90CF90BF90AF9055
:1031C0009F908F907F906F905F904F903F902F9047
:1031D00008954F925F927F928F929F92AF92BF928B
:1031E000CF92DF92EF92FF920F931F93CF93DF93D3
:1031F0000E942C160E945C1770904A01C0E0D0E03B
:103200005BE3452E512C48C0872C99242097B1F1BF
:1032100089A1882361F4849CF001859CF00D949C25
:10322000F00D1124E55BFE4F81A1882339F1E98877
:10323000FA880B891C896D897E898F89988DA801F0
:1032400097010E9443315B016C01849CF001859CD5
:10325000F00D949CF00D1124E55BFE4F6589768995
:103260008789908DA80197010E9443318B019C01B1
:10327000CE01B601A5010E948D1719A2739482E1B7
:10328000781609F47724849CE001859CD00D949CE9
:10329000D00D1124C55BDE4F80917105781609F0C1
:1032A000B3CFE988FA880B891C896D897E898F895B
:1032B000988DA80197010E9443315B016C0160E089
:1032C00070E080E090E0A80197010E9443318B01FB
:1032D0009C01CE01B601A5010E948D1719A2DF91B4
:1032E000CF911F910F91FF90EF90DF90CF90BF9003
:1032F000AF909F908F907F905F904F9008958F92A6
:103300009F92AF92BF92CF92DF92EF92FF920F9374
:103310001F934B015C0180914A0190E02BE330E068
:10332000829F8001839F100D929F100D1124055BD9
:103330001E4FC501B4010E94DE31F801258D368D86
:10334000478D50A10E941C346B017C01F8016585FA
:103350007685878590890E94DE319B01AC01C7018B
:10336000B6010E944331F801658F768F878F90A355
:1033700085869686A786B08A80E090E0A0E0B0E0DF
:10338000858B968BA78BB08F818F928FA38FB48FF5
:1033900012A281E081A30E94E9181F910F91FF9072
:1033A000EF90DF90CF90BF90AF909F908F90089557
:1033B0002F923F924F925F926F927F928F929F9245
:1033C000AF92BF92CF92DF92EF92FF920F931F9333
:1033D000DF93CF93CDB7DEB7ED970FB6F894DEBF8E
:1033E0000FBECDBF29013A01AFA2B8A6C9A6DAA681
:1033F0008BA620917105422F50E05EA34DA3209132
:103400008706309188064091890650918A0629A343
:103410003AA34BA35CA30E941C340E94EC336AAB1A
:103420007BAB8CAB9DAB40918B0650918C06609131
:103430008D0670918E064D8F5E8F6F8F78A3C301BE
:10344000B2012D8D3E8D4F8D58A10E941C340E94DB
:10345000EC336EAB7FAB88AF99AF60918F06709104
:1034600090068091910690919206698F7A8F8B8F4A
:103470009C8FC801B701298D3A8D4B8D5C8D0E94C0
:103480001C340E94EC336AAF7BAF8CAF9DAF8BE3F3
:1034900090E0ADA1BEA1A89FF001A99FF00DB89F3B
:1034A000F00D1124E55BFE4F1082209172053091E2
:1034B000730540917405509175056AA97BA98CA983
:1034C0009DA9621773078407950714F480E480832D
:1034D000A0907605B0907705C0907805D0907905DA
:1034E0008EA99FA9A8ADB9AD8A159B05AC05BD05F0
:1034F00084F48BE390E0ADA1BEA1A89FF001A99F49
:10350000F00DB89FF00D1124E55BFE4F80818068BF
:103510008083E0907A05F0907B0500917C05109106
:103520007D056AAD7BAD8CAD9DAD6E157F058007C9
:10353000910784F48BE390E0ADA1BEA1A89FF001B8
:10354000A99FF00DB89FF00D1124E55BFE4F80811F
:10355000816080832AA83BA84CA85DA8221A330A60
:10356000440A550A8BE390E02DA13EA1289FF0016B
:10357000299FF00D389FF00D1124E55BFE4F21824D
:1035800032824382548257FE0BC088279927DC0180
:1035900082199309A409B50981839283A383B48313
:1035A0006EA87FA888AC99AC6A187B088C089D0827
:1035B0008BE390E04DA15EA1489FF001499FF00D83
:1035C000589FF00D1124E55BFE4F6582768287825D
:1035D000908697FE0BC088279927DC0186199709EA
:1035E000A809B90985839683A783B087AAACBBAC29
:1035F000CCACDDACAE18BF08C00AD10A860175019B
:10360000D7FE07C0EE24FF248701EA18FB080C0947
:103610001D098BE390E06DA17EA1689FF001699F79
:10362000F00D789FF00D1124E55BFE4FE186F286E8
:10363000038714872181328143815481858196815A
:10364000A781B08582179307A407B50710F4DA01A4
:10365000C9019C01AD018E159F05A007B10710F4AB
:10366000A80197018BE390E0EDA1FEA1E89FD001B6
:10367000E99FB00DF89FB00D1124A55BBE4FBDA70B
:10368000ACA71D962D933D934D935C9350972115B8
:1036900031054105510509F497C2C201B1010E94EB
:1036A000DE3129A13AA14BA15CA10E9443316D8B6F
:1036B0007E8B8F8B988FC401B3010E94DE312D8DDC
:1036C0003E8D4F8D58A10E944331698B7A8B8B8B35
:1036D0009C8BC601B5010E94DE31298D3A8D4B8D40
:1036E0005C8D0E9443316D877E878F87988B6D89B3
:1036F0007E898F89988D9B01AC010E941C347B01CF
:103700008C0169897A898B899C899B01AC010E9413
:103710001C349B01AC01C801B7010E9463307B01DE
:103720008C016D857E858F8598899B01AC010E94F7
:103730001C349B01AC01C801B7010E9463300E9498
:10374000A9347B018C01ECA5FDA5658F768F878F51
:1037500090A360E070E080E89FE3A80197010E94D9
:1037600043312B013C01FBA5FF2349F46FA178A550
:1037700089A59AA5A30192010E941C340AC060E0A9
:1037800070E080E89FE32FA138A549A55AA50E94C3
:1037900043314B015C018BE390E02DA13EA1289FBA
:1037A0006001299FD00C389FD00C11244BE451E0CC
:1037B000C40ED51EC801B701A50194010E941C3496
:1037C0006EA77FA788AB99ABD60151966D937D9379
:1037D0008D939C9354971D966D917D918D919C91A5
:1037E00050970E94DE317B018C01A50194010E945B
:1037F0001C340E9429310E94B031F60167AB70AFD2
:1038000081AF92AF2091A2063091A3064091A40609
:103810005091A50629873A874B875C87C801B70175
:10382000A30192010E941C3429853A854B855C8551
:103830000E941C3420E030E84BE355E40E94433101
:103840000E9429310E94AB31D6019B966D937D93E6
:103850008D939C939E976D897E898F89988DA30106
:1038600092010E941C346D837E838F8398876989BF
:103870007A898B899C89A30192010E941C346983F7
:103880007A838B839C836D857E858F859889A30140
:1038900092010E941C341B012C01909171058091B2
:1038A0004A01981709F4B3C060908A0570908B059F
:1038B00080908C0590908D05B301C40120E030E02C
:1038C00040E050E00E944A3318160CF0A0C060910E
:1038D0007E0570917F0580918005909181059058BB
:1038E0002D813E814F8158850E941C347B018C01C3
:1038F00069817A818B819C81209182053091830539
:1039000040918405509185050E941C349B01AC01B7
:10391000C801B7010E9462307B018C01C201B10174
:103920002091860530918705409188055091890541
:103930000E941C349B01AC01C801B7010E94623097
:103940007B018C0123E333E343E75FE30E943C31D7
:1039500088230CF05CC0B301C4012EA53FA548A983
:1039600059A90E943C3187FD06C08EA59FA5A8A934
:10397000B9A93C014D01C801B70123E333E343E793
:103980005FEB0E944A3318160CF046C060E070E00E
:1039900080E89FE3A80197010E94623020E030E0B8
:1039A00040E05FE30E941C340E94A9345B016C017B
:1039B00069857A858B859C852091A6063091A7061E
:1039C0004091A8065091A9060E941C34A6019501B9
:1039D0000E941C347B018C0160E070E080E89FE372
:1039E000A60195010E9462309B01AC01C801B7019C
:1039F0000E9443310E94A9346B017C01B301C401D0
:103A00009601A7010E943C3187FD06C007C0CC2467
:103A1000DD24EE24FF2402C0630174018BE390E0F7
:103A2000EDA1FEA1E89F8001E99F100DF89F100D08
:103A30001124055B1E4FC601D701F801818F928FBB
:103A4000A38FB48F69857A858B859C85905820E0FB
:103A500030E040E050EC0E941C34D8015D962D917E
:103A60003D914D915C9190970E941C3420E030E094
:103A700040E050E00E9463300E94A934B62EA72E89
:103A8000982E892EB601C7012B2D3A2D492D582D80
:103A90000E943C3187FD04C0CB2CDA2CE92CF82C99
:103AA0008BE390E0EDA1FEA1E89F8001E99F100D5E
:103AB000F89F100D1124055B1E4FC601D701F801B8
:103AC000858B968BA78BB08F618972898389948946
:103AD0002B2D3A2D492D582D0E943C3118162CF0D3
:103AE00081E0D80192968C9302C0F80112A28BE378
:103AF00090E02DA13EA1289FF001299FF00D389F55
:103B0000F00D1124E55BFE4F81E081A32092860534
:103B100030928705409288055092890549815A81E3
:103B20006B817C814093820550938305609384056B
:103B3000709385056D817E818F81988560937E0568
:103B400070937F0580938005909381058189928988
:103B5000A389B48980938A0590938B05A0938C05E3
:103B6000B0938D0580918E058093710580917105CC
:103B70008F5F823109F480E080938E058AAD9BAD22
:103B8000ACADBDAD80937A0590937B05A0937C0589
:103B9000B0937D052EA93FA948AD59AD2093760578
:103BA0003093770540937805509379054AA95BA92E
:103BB0006CA97DA9409372055093730560937405B9
:103BC000709375050E94E918ED960FB6F894DEBF64
:103BD0000FBECDBFCF91DF911F910F91FF90EF905E
:103BE000DF90CF90BF90AF909F908F907F906F901D
:103BF0005F904F903F902F90089590917105809124
:103C00004A01981719F080914A0104C080913B0144
:103C1000833031F40E94C71F80913A01882369F3F1
:103C200008958091710580934A01809171058F5F9D
:103C3000823109F480E080938E058CE1E2E7F5E0C3
:103C4000DF011D928A95E9F708958F929F92AF92B6
:103C5000BF92CF92DF92EF92FF920F931F93DF9369
:103C6000CF93CDB7DEB72A970FB6F894DEBF0FBE5D
:103C7000CDBF7B018C0120E030E040E050E00E94AD
:103C80003C3188233CF48DE20E94B92617FB109545
:103C900017F91095A090BB06DA2C0CC0C801B7012B
:103CA00020E030E048EC52E40E941C347B018C019F
:103CB0008EEFD80EE1E0ED1588F3A0FE0AC0C80132
:103CC000B70120E030E040E251E40E941C347B0167
:103CD0008C01C801B70120E030E040E05FE30E94C2
:103CE00063300E94AB316B017C019E012F5F3F4F1F
:103CF000F901EA0DF11D8EE28083BB2449011EC04B
:103D0000BA1409F4B39484010B0D111DC701B60157
:103D10002AE030E040E050E00E943435605DF80178
:103D20006083B394C701B6012AE030E040E050E080
:103D30000E943435C901DA016C017D01C114D1043E
:103D4000E104F104E9F606C0FC01EB0DF11D20834E
:103D5000B39403C0CE01019620E3BA14A8F3BA14B9
:103D600089F48B2D8F5FFE01E80FF11D90E39183A5
:103D7000B82EB39407C0FE01EB0DF11D80810E94A7
:103D8000B926BA94BB20B9F72A960FB6F894DEBFCD
:103D90000FBECDBFCF91DF911F910F91FF90EF909C
:103DA000DF90CF90BF90AF909F908F9008958F92AB
:103DB0009F92BF92CF92DF92EF92FF920F931F9349
:103DC000DF93CF93CDB7DEB72A970FB6F894DEBF57
:103DD0000FBECDBF7B018C0197FF0BC08DE20E940F
:103DE000B92610950095F094E094E11CF11C011D9A
:103DF000111D67017801C114D104E104F10421F41B
:103E000080E30E94B9262FC0BB244E010894811C78
:103E1000911C84010B0D111DC701B6012AE030E091
:103E200040E050E00E943435605DF8016083B39457
:103E3000C701B6012AE030E040E050E00E9434358E
:103E4000C901DA016C017D01C114D104E104F1045E
:103E500001F707C0FE01EB0DF11D80810E94B9261C
:103E6000BA94BB20B9F72A960FB6F894DEBF0FBEFE
:103E7000CDBFCF91DF911F910F91FF90EF90DF9019
:103E8000CF90BF909F908F9008950F931F93DF93D3
:103E9000CF93CDB7DEB728970FB6F894DEBF0FBE2D
:103EA000CDBF982FFE0131969E01275F3F4F892F8E
:103EB000817081939695E217F307C9F78E01085F29
:103EC0001F4FF8018081805D0E94B926015010408B
:103ED0000C171D07B1F728960FB6F894DEBF0FBE7A
:103EE000CDBFCF91DF911F910F910895CF93DF93B5
:103EF000EC0102C00E94B926FE012196849188231C
:103F0000C9F7DF91CF910895CF93DF93EC0103C000
:103F100021960E94B92688818823D1F7DF91CF911D
:103F200008951F920F920FB60F9211242F933F9373
:103F30004F935F936F937F938F939F93AF93BF93B1
:103F4000EF93FF93199912C0199903C00E940310AF
:103F50000DC0199904C080913C01886005C0199971
:103F600005C080913C01826080933C01FF91EF91FC
:103F7000BF91AF919F918F917F916F915F914F9181
:103F80003F912F910F900FBE0F901F901895CF93D8
:103F9000DF9380913C01882309F457C080913C0154
:103FA000C82FD0E0CE0180769070892BE9F086E0B2
:103FB00080933B01C6FF10C08FEF0E94882681E0EE
:103FC0000E94042280913C018F7E80933C0180916D
:103FD0003C0184FFFCCF03C08EEF0E9488268091B5
:103FE0003C018F7980933C01C4FF04C081E0809341
:103FF0003A012BC0C0FF07C00E94862280913C017D
:104000008E7F80933C01C3FF07C00E94DA2A809113
:104010003C01877F80933C01C2FF07C00E94E42AD5
:1040200080913C018B7F80933C01C1FF0EC00E94B8
:10403000D02A8091AA0681FF03C081E080934901C4
:1040400080913C018D7F80933C01DF91CF91089559
:1040500080E060E975E00E94ED29882369F0809195
:104060009005882361F080E995E00E94841F80E933
:1040700095E00E94940401C08AE00E942E2281E013
:1040800060E975E00E94ED29882321F48AE00E940E
:104090002E22089580919005882351F080E995E0C3
:1040A0000E94841F80E995E00E9494040E942E22C1
:1040B0000895DF92EF92FF920F931F93DF93CF93B8
:1040C000CDB7DEB729970FB6F894DEBF0FBECDBFD0
:1040D0007C01FC018081853419F40C94003C0DC1F5
:1040E000843209F00AC181E08983F7018181873434
:1040F00081F1883474F48432C1F0853234F4882339
:1041000089F0833209F097C01AC0833409F093C054
:104110002AC08E3409F469C08835F1F1883409F079
:104120008AC04CC00E94FA21F3C082E08983F70163
:104130008281882309F0E6C00E942D25E9C082E033
:104140008983F7018281882309F0DCC00E946F24F3
:10415000DFC082E08983F7018281882309F0D2C021
:104160000E948323D5C082E08983F701828188235E
:1041700009F0C8C080913B01873021F40E940310F0
:1041800085E007C0882309F0BFC087E080933B012A
:1041900084E00E940422BCC082E08983F70182810E
:1041A000882309F0AFC080913B01863009F0B0C090
:1041B00083E00E94042210923B01AAC08091AA06CB
:1041C00084FD02C017E0A5C080913B01882319F04F
:1041D000863009F099C00E94C11080913A0188236D
:1041E00009F096C00E94282093C082E08983F701DD
:1041F0008281882319F0DD24D3941EC080E0B701AA
:104200000E94ED29882329F080E0B7010E944A240A
:1042100003C08AE00E942E2281E0B7010E94ED29AE
:10422000882321F48AE00E942E2272C081E0B70127
:104230000E944A246DC0DD24C7018E010F5F1F4F0D
:10424000B801AE014E5F5F4F0E949D14892B09F4A7
:104250005DC09981F701E90FF11D80818D3309F06F
:1042600051C0892F8F5F8983DD2041F1482F50E0B5
:104270002981822F90E0FC01E41BF50BEE0DFF1D60
:10428000D701A80FB91F8C9180838C912F5F298350
:10429000882371F7C7010E949404182F8823C9F559
:1042A0006A817B818C819D810E94F6340E94B031AD
:1042B000DC01CB01B7010E94E2292BC0C701B80184
:1042C000AE014A5F5F4F0E949D14892BF9F08981EE
:1042D000E80EF11CF70180818823A1F46A817B81BB
:1042E0008C819D810E94AB31DC01CB014E815F81CD
:1042F000688579850E947D2703C0C7010E949404C8
:10430000182F07C013E005C01BE003C011E001C077
:1043100010E0812F29960FB6F894DEBF0FBECDBFF7
:10432000CF91DF911F910F91FF90EF90DF90089553
:104330001F9311E044C02A3011F02D30D1F40E94B7
:10434000C71F80913A01882309F03FC0E0918F0593
:10435000EE2349F0F0E0E057FA4F108280E995E053
:104360000E94592001C080E00E942E2210928F05E9
:1043700006C08091C205882329F0293201F51092E8
:10438000C2051DC02132D8F02F32C9F0283219F4ED
:104390001093C20514C090918F05913380F4822F41
:1043A0008156E92FF0E09F5F8A3120F4E057FA4F01
:1043B000205202C0E057FA4F208390938F050E944D
:1043C0000127282F8F3F09F0B6CF1F910895109233
:1043D0008F051092C2050E94FF212198299AECE6D0
:1043E000F0E0808182608083E8E6F0E08081826096
:1043F000808308958AE594E00E94761F089588E8F6
:1044000095E00E94761F08951F93182F82EF95E084
:104410000E94761F133091F0143028F4113041F0CF
:104420001230B1F408C0143061F0153089F40CC0BA
:1044300080EE95E00BC08CEC95E008C08AEB95E02F
:1044400005C082EB95E002C089EA95E00E94761FE4
:1044500085EA95E00E94761F1F9108951F93182FFB
:10446000882319F48DE097E04DC085E097E00E9425
:10447000761F163079F1173070F4133011F11430C3
:1044800028F41130C1F01230D9F518C01430E1F021
:104490001530B1F51CC0193031F11A3028F417303D
:1044A000E1F0183069F51CC01B3019F11B30F0F039
:1044B0001C3031F521C083EF96E020C08BED96E0F3
:1044C0001DC085EC96E01AC086EB96E017C080EA26
:1044D00096E014C08EE896E011C08DE796E00EC01D
:1044E00081E796E00BC082E696E008C081E496E0A2
:1044F00005C082E396E002C087E296E00E94761F44
:1045000084E296E00E94761F1F910895AF92BF92B9
:10451000CF92DF92EF92FF920F931F93DF93CF938F
:10452000CDB7DEB768970FB6F894DEBF0FBECDBF2C
:10453000DE011196EDE3F1E08CE001900D928150E7
:10454000E1F780913B018430C9F0853038F4823046
:1045500079F0833080F4882341F01DC08630A1F0CB
:10456000863078F08730B9F412C08CE191E011C048
:1045700085E191E00EC080E191E00BC08AE091E01E
:1045800008C084E091E005C08DEF90E002C086EFA6
:1045900090E00E94761F8FEE90E00E94761F8DE0E3
:1045A000E82EF12CEC0EFD1E670100E010E05E012C
:1045B0000894A11CB11CF501E00FF11F608171810D
:1045C000828193810E94DE31F801E957F94F208101
:1045D0003181428153810E9443319B01AC01F6013C
:1045E00060837183828393838091AA0680FF0DC0CC
:1045F000CA01B9012BE832E441E25DE30E941C34B8
:10460000F6016083718382839383F60161917191D6
:10461000819191916F010E94251E8DEE90E00E9484
:10462000761F0C5F1F4F0C30110529F687EE90E0C6
:104630000E94761F02E211E0DD248091AA0680FF2D
:104640001BC0F80160817181828193812485358549
:10465000468557850E9463302BE832E441E25DEBEA
:104660000E941C349B01AC01F70160817181828141
:1046700093810E94633014C0F8016081718182814E
:10468000938124853585468557850E9463309B013B
:10469000AC01F70160817181828193810E94623057
:1046A000F7016083718382839383F7016081718155
:1046B000828193810E94251EF2E0DF1621F085EEB3
:1046C00090E00E94761FD39484E090E0E80EF91EFB
:1046D0000C5F1F4F93E0D91609F0AFCF81EE90E049
:1046E0000E94761F68960FB6F894DEBF0FBECDBF4E
:1046F000CF91DF911F910F91FF90EF90DF90CF90BE
:10470000BF90AF90089580910601823091F0833080
:1047100028F4882341F08130B1F408C0833061F07F
:10472000843089F40CC085E991E00BC081E991E007
:1047300008C08DE891E005C089E891E002C084E8F6
:1047400091E00E94761F81E891E00E94761F6091BF
:10475000210170E06A5C7F4F882777FD8095982F54
:104760000E94D71E80911E01882351F480911F0161
:10477000813019F48CE791E005C087E791E002C031
:1047800082E791E00E94761F80910801882319F04A
:104790008DE691E002C088E691E00E94761F80914C
:1047A0000901882319F083E691E002C08EE591E0CB
:1047B0000E94761F80910701882319F089E591E016
:1047C00002C084E591E00E94761F80910A01813049
:1047D00041F0813018F0823059F406C080E591E054
:1047E00005C08CE491E002C088E491E00E94761F4D
:1047F00080910B01882359F0813019F08F3F59F4D3
:1048000003C084E491E005C080E491E002C08CE341
:1048100091E00E94761F80910C01882319F081306D
:1048200041F403C088E391E002C084E391E00E9478
:10483000761F81E391E00E94761F60911D0170E078
:1048400080E090E00E94D71E8EE291E00E94761FE9
:1048500080910801882379F060910D0170910E011B
:1048600080910F01909110012BE832E441E25DE369
:104870000E941C3408C060910D0170910E0180915E
:104880000F01909110010E94251E8AE291E00E9482
:10489000761F0895CF92DF92EF92FF920F931F93AE
:1048A000E82E6B0187E291E00E94761FFF2400E072
:1048B00010E0C801B7010E94D71E85E291E00E9476
:1048C000761FC6010E94841F82E291E00E94761F3B
:1048D0001F910F91FF90EF90DF90CF900895CF92AE
:1048E000DF92EF92FF920F931F93DF93CF93CDB799
:1048F000DEB72C970FB6F894DEBF0FBECDBFFF24F6
:104900006E010894C11CD11C8F2DB6010E9485290F
:10491000882321F48AE00E942E2290C08BEC91E043
:104920000E94761F83E0F816E9F08F1530F0E1E081
:10493000FE1691F0EF1598F00CC0F5E0FF16C1F0EF
:10494000FF1698F086E0F816B1F0E7E0FE16D1F415
:1049500015C087EC91E014C083EC91E011C08FEB9F
:1049600091E00EC08BEB91E00BC087EB91E008C0AB
:1049700083EB91E005C08FEA91E002C08BEA91E001
:104980000E94761F8601EE248091AA0680FF0CC04B
:10499000F80160817181828193812BE832E441E2E8
:1049A0005DE30E941C3405C0F80160817181828141
:1049B00093810E94251EF2E0EF1619F089EA91E03A
:1049C00002C085EA91E00E94761FE3940C5F1F4FBE
:1049D00083E0E816C9F6F394E8E0FE1609F094CFF8
:1049E0008FE991E00E94761F0EE211E0FF24809192
:1049F000AA0680FF0CC0F8016081718182819381D9
:104A00002BE832E441E25DE30E941C3405C0F8016A
:104A100060817181828193810E94251EF2E0FF16E0
:104A200019F08DE991E002C089E991E00E94761FBA
:104A3000F3940C5F1F4F83E0F816C9F62C960FB65F
:104A4000F894DEBF0FBECDBFCF91DF911F910F91C4
:104A5000FF90EF90DF90CF90089586E594E00E945C
:104A6000761F6091870670918806809189069091E3
:104A70008A060E94251E83E494E00E94761F6091BE
:104A80008B0670918C0680918D0690918E060E9407
:104A9000251E80E394E00E94761F60918F0670913E
:104AA000900680919106909192060E94251E8DE1BC
:104AB00094E00E94761F6091940670E080E090E0A0
:104AC0000E94D71E84E094E00E94761F60919506B4
:104AD0007091960680919706909198060E94251EE7
:104AE00087EE93E00E94761F6091990670919A0676
:104AF00080919B0690919C060E94251E8AEC93E073
:104B00000E94761F60919D0670E080E090E00E9418
:104B1000D71E8CEA93E00E94761F80919D060E942A
:104B2000451F85EA93E00E94761F6091BA0670E007
:104B300080E090E00E94D71E87E893E00E94761FF5
:104B40006091A2067091A3068091A4069091A5069B
:104B500020E030E041E655E40E9443310E94251EEA
:104B600088E693E00E94761F6091A6067091A706E2
:104B70008091A8069091A9060E94251E88E493E0E2
:104B80000E94761F60919E0670919F068091A006FC
:104B90009091A1060E94251E8FE293E00E94761F4D
:104BA0006091BC0670E080E090E00E94D71E80E13A
:104BB00093E00E94761F6091BB0670E080E090E079
:104BC0000E94D71E87EF92E00E94761F6091AA068E
:104BD000617070E080E090E00E94D71E8AED92E064
:104BE0000E94761F6091AA0670E07695679580E036
:104BF00090E061707070807090700E94D71E80ECA1
:104C000092E00E94761F6091AA0670E07695679503
:104C10007695679580E090E061707070807090701C
:104C20000E94D71E8EE992E00E94761F6091AA062C
:104C300070E023E0769567952A95E1F780E090E0B3
:104C400061707070807090700E94D71E83E892E04F
:104C50000E94761F6091AA0670E094E076956795B1
:104C60009A95E1F780E090E06170707080709070CC
:104C70000E94D71E87E692E00E94761F6091AB06E5
:104C800070E080E090E00E94D71E88E492E00E94ED
:104C9000761F8091AB060E94451F80E492E00E943F
:104CA000761F6091AC067091AD068091AE06909132
:104CB000AF060E94251E83E292E00E94761F60915B
:104CC000B0067091B1068091B2069091B3060E9431
:104CD000251E86E092E00E94761F6091B4067091D6
:104CE000B50680E090E00E94D71E87EE91E00E941A
:104CF000761F6091B6067091B7068091B8069091C4
:104D0000B9060E94251E8EEC91E00E94761F089540
:104D10001F93182F8CE196E00E94761F1E3F29F00A
:104D20001F3F39F481E196E002C08EEF95E00E94CA
:104D3000761F84EF95E00E94761F84EF91E00E9439
:104D400058151F910895E0ECF0E080818D7F8083FD
:104D50001092C50087E68093C400E1ECF0E080810A
:104D60008061808380818860808380818068808387
:104D70000895282FE09185069E2F9F5F903431F48F
:104D800090E004C080913C0184FD0FC080918606B4
:104D90009817C1F3F0E0EB5BF94F20839093850601
:104DA0008091C10080628093C10008951F920F928C
:104DB0000FB60F9211248F939F93EF93FF938091DF
:104DC0008606E82FF0E0EB5BF94F90819093C600E8
:104DD000982F9F5F903409F490E09093860680911D
:104DE0008506981729F48091C1008F7D8093C100BA
:104DF000FF91EF919F918F910F900FBE0F901F9099
:104E000018959091440680914306891711F4EFEFAD
:104E10000DC0E92FF0E0ED53FA4FE081892F8F5F4D
:104E200080934406803811F4109244068E2F089522
:104E3000809143068093440608951F920F920FB607
:104E40000F9211242F933F934F935F936F937F9310
:104E50008F939F93AF93BF93EF93FF932091C600DF
:104E60002132A1F0223218F42831B9F413C02F33C3
:104E700019F02E3791F404C080913C01816003C089
:104E800080913C01826080933C0118C080913C017C
:104E90008860F9CF0E94031011C0E09143069E2F55
:104EA0009F5F903809F490E080914406981731F0A4
:104EB000F0E0ED53FA4F208390934306FF91EF917A
:104EC000BF91AF919F918F917F916F915F914F9122
:104ED0003F912F910F900FBE0F901F90189580E07B
:104EE00090E065E00E94CB0381E090E067E876E027
:104EF00046E350E00E94D7030895EF92FF920F938C
:104F00001F93CF93DF93EC017A018B01FC01873172
:104F1000910540F4EC5CFF4FEE0FFF1F0590F491FC
:104F2000E02D099486E01FC1CB01BA0120E030E0FA
:104F300040E050E00E943C31181614F088E013C1A4
:104F4000CC0FDD1FCC0FDD1FC957D94FE882F98286
:104F50000A831B8305C1CB01BA0120E030E040E4A5
:104F600050E40E943C31882314F489E0FCC0C8015D
:104F7000B7010E947F340E94B03160939406F0C064
:104F80004093950650939606609397067093980603
:104F9000E7C04093990650939A0660939B067093DE
:104FA0009C06DEC0CB01BA010E94F6340E94B031EB
:104FB00060939D06D5C0CB01BA010E947F340E9448
:104FC000B0316093BA06CCC0CB01BA0120E030E02A
:104FD00040E752E40E941C3420E030E040E752E415
:104FE0000E941C346093A2067093A3068093A406CB
:104FF0009093A506B5C0DB01CA01BF778093A606D2
:105000009093A706A093A806B093A906A9C04093C1
:105010009E0650939F066093A0067093A106A0C0C1
:10502000CB01BA010E947F340E94B0316093BC066C
:1050300097C0CB01BA010E947F340E94B0316093C7
:10504000BB068EC0CB01BA0120E030E040E050E06A
:105050000E943C31882321F08091AA06816011C012
:105060008091AA068E7F0DC0CB01BA0120E030E00E
:1050700040E050E00E943C31882331F08091AA0644
:1050800082608093AA066CC08091AA068D7FF9CFBA
:10509000CB01BA0120E030E040E050E00E943C311A
:1050A000882321F08091AA068460EBCF8091AA0624
:1050B0008B7FE7CFCB01BA0120E030E040E050E049
:1050C0000E943C31882321F08091AA06886003C0A9
:1050D0008091AA06877F8093AA060E94490D40C04E
:1050E000CB01BA0120E030E040E050E00E943C31CA
:1050F000882321F08091AA068061C3CF8091AA06FF
:105100008F7EBFCFCB01BA010E94F6340E94B0312E
:105110006093AB0625C04093AC065093AD066093F8
:10512000AE067093AF061CC04093B0065093B10614
:105130006093B2067093B30613C0CB01BA010E940C
:105140007F340E94B0317093B5066093B40608C0F6
:105150004093B6065093B7066093B8067093B906AD
:105160000E946F2780E0DF91CF911F910F91FF90F8
:10517000EF900895882309F45AC080E090E0A8E4F5
:10518000B3E48093870690938806A0938906B09332
:105190008A0680938B0690938C06A0938D06B0931D
:1051A0008E0680938F0690939006A0939106B093FD
:1051B00092068AE08093940680E090E0A8ECB2E446
:1051C0008093950690939606A0939706B0939806C1
:1051D0008093990690939A06A0939B06B0939C06A1
:1051E00080E090EAACE0B7E48093A2069093A30637
:1051F000A093A406B093A5068DEC9CECACECBDE3AB
:1052000080939E0690939F06A093A006B093A1065C
:1052100081E880939D068DEC9CECACE4BDE380932B
:10522000A6069093A706A093A806B093A90682E0CD
:105230008093AA061092AB0680E090E0A8ECB1E45F
:105240008093AC069093AD06A093AE06B093AF06E4
:1052500080E090E0AAE7B3E48093B0069093B106B3
:10526000A093B206B093B30684E690E09093B5069F
:105270008093B40680E090E0A0E8BFE38093B60698
:105280009093B706A093B806B093B90699E19093AE
:10529000BA0683E08093BB069093BC060E946F27FA
:1052A000089580E090E00E94C403853079F487E897
:1052B00096E061E070E046E350E00E940F0420E0D9
:1052C000892B09F421E081E0282712C0853078F489
:1052D00087E896E061E070E043E250E00E940F044E
:1052E000892B29F080E00E94BA2821E001C020E04B
:1052F000822F08959DE0899FC001112480509E4F08
:105300004CE050E00E94D7030895FF920F931F9343
:10531000F82E162F072F6DE0869FB00111246050E4
:105320007E4F812F902F4CE050E00E940F04892B7C
:1053300011F081E00DC0E12FF02F8CE0DF011D9214
:105340008A95E9F78F2D612F702F0E947A2980E0CE
:105350001F910F91FF900895EF92FF921F93DF939B
:10536000CF93CDB7DEB72C970FB6F894DEBF0FBE44
:10537000CDBF0E945129882341F48AE00E942E2249
:1053800081E00E94BA280E942D2510E07E01089439
:10539000E11CF11C812FB7010E948529882319F493
:1053A0008AE00E942E221F5F1830A1F72C960FB6BC
:1053B000F894DEBF0FBECDBFCF91DF911F91FF905C
:1053C000EF90089593E3899FC001112480509D4F71
:1053D00042E350E00E94D70308951F93CF93DF93D9
:1053E000182FEB0163E3869FB001112460507D4FBD
:1053F000CE0142E350E00E940F04892B11F081E0BE
:1054000006C01882812FBE010E94E22980E0DF9150
:10541000CF911F9108951092BD06209A209A289846
:105420000895289808951F93182F282F332727FDB4
:1054300030958091BD0690E02817390771F00E94E1
:10544000FD1D112339F0111614F4289801C0289A73
:10545000289A01C028981093BD061F910895809145
:10546000AA0682FF02C02D9A01C02D9880913B01AF
:105470008330C1F480919D068093E5068091940667
:1054800090E0A0E0B0E00297A109B109880F991F50
:10549000AA1FBB1F81958093E60680916F008260F2
:1054A00080936F0008951F920F920FB60F921124F0
:1054B0008F939F9395B180919D0681709E7F892BDC
:1054C00085B91092B1009F918F910F900FBE0F90F0
:1054D0001F9018959B01AC01203283E0380780E0D3
:1054E000480780E0580720F420E233E040E050E035
:1054F00060E070E788E399E30E943435C901DA017E
:10550000803020E0920721E0A20720E0B20730F4CB
:10551000BC019C0140E050E091E02FC0803020E0D1
:10552000920728E0A20720E0B207A0F423E0B69596
:10553000A795979587952A95D1F7BC019C0140E0E6
:1055400050E0A3E0220F331F441F551FAA95D1F747
:1055500092E013C0F6E0B695A79597958795FA95D2
:10556000D1F7BC019C0140E050E0E6E0220F331F80
:10557000441F551FEA95D1F793E080918100887F01
:10558000982B9093810070938900609388002093FA
:10559000D4063093D5064093D6065093D706089587
:1055A00080913B01823029F483E080933B010E948B
:1055B0002F2A089580913B01833029F484E0809361
:1055C0003B01109249010895E091BE06F091BF069B
:1055D0003097C1F165857685878590892091D006C1
:1055E0003091D1064091D2065091D306621B730BC5
:1055F000840B950B0E947F191092DC061092DD0639
:105600001092DE061092DF0660E070E080E090E02D
:105610000E946A2A80E091E7A2E0B0E08093D80679
:105620009093D906A093DA06B093DB061092D006C9
:105630001092D1061092D2061092D30682E0809387
:105640003B01089510923B01089584E2E0ECF6E0FE
:10565000DF011D928A95E9F760E273E080E090E057
:105660000E946A2A1092BF061092BE061092E406AB
:10567000089580916F008D7F80936F009091BA069E
:105680009F3F21F480913C0185FF0BC0892F90E062
:105690000E9458158091AA0682FF02C02D98089595
:1056A0002D9A089584B1816C84B985B18E739091DF
:1056B0009D06892B85B9259AE1E8F0E080818F7EEF
:1056C0008083808188608083E0E8F0E080818D7F46
:1056D000808380818E7F808380818F7380838081AF
:1056E0008F7C80831092B0001092B100E0E7F0E070
:1056F0008081816080830E942F2A0E94392B089527
:105700001F920F920FB60F921124EF92FF920F93F8
:105710001F932F933F934F935F936F937F938F9339
:105720009F93AF93BF93CF93DF93EF93FF938091BA
:10573000E406882309F01AC495B12091E506822F6A
:10574000817C9E73892B85B985B18E7F822B85B92B
:105750008091E6068093B20082E08093B10081E000
:105760008093E40678948091BE069091BF06892BC1
:1057700009F07FC00E94EE15EC019093BF06809364
:10578000BE06009709F46EC080913B018330D1F4CE
:105790006BA17CA18DA19EA16093DC067093DD06B8
:1057A0008093DE069093DF060E946A2A80E091E7EC
:1057B000A2E0B0E08093D8069093D906A093DA06D1
:1057C000B093DB062BA53CA54DA55EA5DA01C9016A
:1057D000B595A79597958795820F931FA41FB51F21
:1057E0008093E0069093E106A093E206B093E3066F
:1057F0002D853E854F855889DA01C901B595A79554
:1058000097958795B095A095909581959F4FAF4FAF
:10581000BF4F8093C0069093C106A093C206B09379
:10582000C3068093C4069093C506A093C606B093A2
:10583000C7068093C8069093C906A093CA06B09382
:10584000CB062093CC063093CD064093CE065093E2
:10585000CF061092D0061092D1061092D206109266
:10586000D30607C00E94392B80913C01846080934D
:105870003C01E091BE06F091BF06309709F46DC37C
:1058800020812093E5064091C0065091C1066091A9
:10589000C2067091C30681819281A381B481480FB1
:1058A000591F6A1F7B1F4093C0065093C106609327
:1058B000C2067093C30614161506160617060CF0DA
:1058C0008DC021602093E5068091CC069091CD0695
:1058D000A091CE06B091CF06481B590B6A0B7B0BEB
:1058E0004093C0065093C1066093C2067093C306EE
:1058F000409100015091010126FF1FC080913D01A0
:1059000090913E01A0913F01B09140010197A10902
:10591000B10980933D0190933E01A0933F01B09364
:105920004001CA010197909301018093000118166C
:10593000190624F188E090E01DC080913D0190910E
:105940003E01A0913F01B09140010196A11DB11D02
:1059500080933D0190933E01A0933F01B09340019D
:10596000CA0101969093010180930001099734F0D8
:1059700081E090E09093010180930001209100016B
:10598000309101012130310519F480E28BB912C048
:105990002230310519F480E38BB911C02330310571
:1059A00019F480E18BB910C02430310519F488E175
:1059B0008BB90FC02530310511F488E00EC02630B8
:1059C000310511F48CE009C02730310511F484E071
:1059D00004C02830310511F484E28BB94091C4062B
:1059E0005091C5066091C6067091C7068581968163
:1059F000A781B085480F591F6A1F7B1F4093C406BB
:105A00005093C5066093C6067093C7061416150614
:105A1000160617060CF08FC02091E5062160209332
:105A2000E5068091CC069091CD06A091CE06B0916E
:105A3000CF06481B590B6A0B7B0B4093C40650934F
:105A4000C5066093C6067093C70640910201509147
:105A5000030127FF1FC08091410190914201A09155
:105A60004301B09144010197A109B109809341011B
:105A700090934201A0934301B0934401CA0101975E
:105A800090930301809302011816190624F188E00F
:105A900090E01DC08091410190914201A09143018D
:105AA000B09144010196A11DB11D809341019093D5
:105AB0004201A0934301B0934401CA01019690931F
:105AC000030180930201099734F081E090E0909304
:105AD00003018093020120910201309103012130E2
